:100000000C9446000C9465000C9465000C946500FB
:100010000C9465000C9465000C9465000C946500CC
:100020000C9465000C9465000C9465000C946500BC
:100030000C9465000C9465000C9465000C946500AC
:100040000C9465000C9465000C9465000C9465009C
:100050000C9465000C9465000C9465000C9465008C
:100060000C9465000C9465000C9465000C9465007C
:100070000C9465000C9465000C9465000C9465006C
:100080000C9465000C9465000C94650011241FBE4F
:10009000CFEFD0E4DEBFCDBF11E0A0E0B1E0E0E4FF
:1000A000F6E000E00BBF02C007900D92AE30B10742
:1000B000D9F721E0AEE0B1E001C01D92A231B20754
:1000C000E1F70E94A1000C941E030C940000CF9352
:1000D000DF9300D01F92CDB7DEB789837B836A831D
:1000E00089818A3031F48A819B81BC018DE00E9434
:1000F000670080EC90E0FC018081882F90E08072A6
:100100009927892BB1F386EC90E02981FC012083AB
:1001100080E090E00F900F900F90DF91CF910895C5
:10012000CF93DF93CDB7DEB78AE790E02AE730E0E0
:10013000F9012081206EFC0120830000DF91CF9126
:100140000895CF93DF93CDB7DEB76C970FB6F894D1
:10015000DEBF0FBECDBF81E290E0FC01108282E2E3
:1001600090E02FEFFC01208384E290E02FEFFC0170
:10017000208385E290E0FC0110828AE290E02FEF7C
:10018000FC0120838BE290E0FC01108280E890E08B
:1001900020E830E0F9012081226CFC01208381E815
:1001A00090E021E830E0F90120812961FC01208301
:1001B00086E890E02FE13EE4FC01318320830E9439
:1001C000900088E790E0FC018081918190930F017D
:1001D00080930E018AE990E09093110180931001C1
:1001E00020910E0130910F01809110019091110129
:1001F0008217930708F484C085E290E021E0FC01B7
:10020000208388E890E026E830E0F9012081318100
:10021000205D3740FC013183208380E090E0A8EC32
:10022000B2E48D839E83AF83B88720E030E04AE755
:1002300053E46D817E818F8198850E948902DC0163
:10024000CB0189879A87AB87BC8720E030E040E804
:100250005FE369857A858B859C850E9403028823EC
:100260002CF481E090E09E878D873FC020E03FEF37
:100270004FE757E469857A858B859C850E948402C7
:1002800018164CF520E030E040E251E46D817E81AB
:100290008F8198850E948902DC01CB01BC01CD01D0
:1002A0000E940802DC01CB019E878D870FC089E187
:1002B00090E0988B8F878F8598890197F1F7988BBD
:1002C0008F878D859E8501979E878D878D859E85DD
:1002D000892B69F797C069857A858B859C850E94F3
:1002E0000802DC01CB019E878D878D859E859A8BC8
:1002F000898B89899A890197F1F79A8B898B61CFCC
:1003000085E290E0FC01108288E890E026E830E089
:10031000F901208131812E503640FC013183208348
:1003200080E090E0A8E4B2E489839A83AB83BC8345
:1003300020E030E04AE753E469817A818B819C8137
:100340000E948902DC01CB018B8B9C8BAD8BBE8B19
:1003500020E030E040E85FE36B897C898D899E89ED
:100360000E94030288232CF481E090E0988F8F8B09
:100370003FC020E03FEF4FE757E46B897C898D89D0
:100380009E890E94840218164CF520E030E040E27D
:1003900051E469817A818B819C810E948902DC0110
:1003A000CB01BC01CD010E940802DC01CB01988F7A
:1003B0008F8B0FC089E190E09A8F898F898D9A8DFC
:1003C0000197F1F79A8F898F8F89988D0197988F70
:1003D0008F8B8F89988D892B69F714C06B897C89E5
:1003E0008D899E890E940802DC01CB01988F8F8B3A
:1003F0008F89988D9C8F8B8F8B8D9C8D0197F1F7BA
:100400009C8F8B8FDECE0E94370208F481E0089526
:100410000E94630288F09F5798F0B92F9927B7512F
:10042000B0F0E1F0660F771F881F991F1AF0BA9598
:10043000C9F714C0B13091F00E947D02B1E0089577
:100440000C947D02672F782F8827B85F39F0B93F69
:10045000CCF3869577956795B395D9F73EF490954B
:100460008095709561957F4F8F4F9F4F0895990F9D
:100470000008550FAA0BE0E8FEEF16161706E8076E
:10048000F907C0F012161306E407F50798F0621B8F
:10049000730B840B950B39F40A2661F0232B242B64
:1004A000252B21F408950A2609F4A140A6958FEF83
:1004B000811D811D089557FD9058440F551F59F017
:1004C0005F3F71F04795880F97FB991F61F09F3F41
:1004D00079F087950895121613061406551FF2CF6A
:1004E0004695F1DF08C0161617061806991FF1CFBA
:1004F00086957105610508940895E894BB276627E1
:100500007727CB0197F908950E94370208F48FEFFF
:1005100008950E949C020C940D030E94FF0238F083
:100520000E94060320F0952311F00C94F6020C941F
:10053000FC0211240C947E020E945B0270F3959FD2
:10054000C1F3950F50E0551F629FF001729FBB27CA
:10055000F00DB11D639FAA27F00DB11DAA1F649F66
:100560006627B00DA11D661F829F2227B00DA11D19
:10057000621F739FB00DA11D621F839FA00D611D9F
:10058000221F749F3327A00D611D231F849F600DC0
:10059000211D822F762F6A2F11249F5750409AF0E9
:1005A000F1F088234AF0EE0FFF1FBB1F661F771F75
:1005B000881F91505040A9F79E3F510580F00C9440
:1005C000F6020C947E025F3FE4F3983ED4F38695E6
:1005D00077956795B795F795E7959F5FC1F7FE2BE0
:1005E000880F911D9695879597F9089597F99F67BC
:1005F00080E870E060E008959FEF80EC08950024AB
:100600000A941616170618060906089500240A9477
:1006100012161306140605060895092E0394000CFD
:1006200011F4882352F0BB0F40F4BF2B11F460FF8C
:1006300004C06F5F7F4F8F4F9F4F0895F894FFCF97
:0E064000000000020000000067000000000043
:00000001FF
